:1000000017C029C028C027C026C025C024C023C0CF
:1000100022C021C020C01FC01EC01DC01CC01BC0EC
:100020001AC019C018C0C0F9A4B0999282D88090A3
:1000300011241FBECFE5D4E0DEBFCDBF10E0A0E6A7
:10004000B0E0ECEEF0E002C005900D92A236B107F0
:10005000D9F739D049C0D4CFC09AE82FF0E0EA5D93
:10006000FF4FE491E2BB83EF91E00197F1F700C00D
:10007000000088B391E0892788BB0895C19AE82FD2
:10008000F0E0EA5DFF4FE491EF77E2BB83EF91E0B0
:100090000197F1F700C0000088B392E0892788BB80
:1000A0000895E82FF0E0EA5DFF4FE491C29AE2BBC9
:1000B00083EF91E00197F1F700C0000088B394E06E
:1000C000892788BB08958FEF81BB87B3876087BB83
:1000D000A09A85E090E0E5DF84E090E0CFDF83E068
:0C00E00090E0BADFA89AF5CFF894FFCFAB
:0200EC007F0093
:00000001FF
