:1000000077C089C088C087C086C085C084C083C0CF
:1000100082C081C080C07FC07EC07DC07CC07BC0EC
:100020007AC079C078C04D656E7531004D656E75CA
:1000300032004D656E7533004D656E753400506F3E
:10004000646D656E75413100506F646D656E75410C
:100050003200506F646D656E75413300506F646D92
:10006000656E75423100506F646D656E7542320089
:100070003C7A20706F77726F74656D3E00463A204F
:1000800000700067019500000000006600660195A1
:1000900000000081005C006501BD0000008B007065
:1000A000006701BD000000000052006401BD0000B7
:1000B000009F004800000095009500A9003E0063E5
:1000C00001E5000000B30038006201E50000000017
:1000D0000032006101E5000000C7002C000000951F
:1000E00000BD00D1002600600100000000DB000020
:1000F00011241FBECFE5D4E0DEBFCDBF10E0A0E6E7
:10010000B0E0ECEEF2E002C005900D92A836B10727
:10011000D9F7E5D0E9C074CFC1980895C19A089580
:10012000FF920F931F93182FF62E662311F0C29A99
:1001300001C0C29817FF02C0979A01C09798012F7B
:1001400016FF02C0969A01C0969805FF02C0959AC4
:1001500001C0959804FF02C0949A01C094980000D1
:10016000DDDF00C000C0D8DF03FF02C0979A01C0E6
:10017000979802FF02C0969A01C0969801FF02C0AC
:10018000959A01C0959800FF02C0949A01C0949876
:100190000000C4DF00C000C0BFDF979A969A959A0E
:1001A000949AFF2049F4143038F48FEC9CE00197C6
:1001B000F1F700C0000004C09AE69A95F1F700C07C
:1001C0001F910F91FF90089560E0AADF0895805875
:1001D000FBDF089581E0F8DF089582E0F5DF089500
:1001E00061E09EDF0895CF93DF93EC0101C0F8DF5B
:1001F00089918823E1F7DF91CF910895CF93DF9321
:10020000EC0101C0EDDFFE01219684918823D1F736
:10021000DF91CF910895B99ABA9A8F9A8E9A8D9A52
:100220008C9A7ADFC298979A969A959A949A8FE2C6
:1002300095E70197F1F700C00000979896980000A5
:100240006DDF00C000C068DF87E090E20197F1F742
:1002500000C0000063DF00C000C05EDF87EC90E0FC
:100260000197F1F700C0000059DF00C000C054DF63
:100270009AE69A95F1F700C0949800004FDF00C00D
:1002800000C04ADF8AE68A95F1F700C09498000022
:1002900045DF00C000C040DF00C000C0979A0000EA
:1002A0003DDF00C000C038DF9AE69A95F1F700C044
:1002B00088E08ADF8FDF86E087DF8CE085DF0895C6
:1002C0000895089508950895089508950895089546
:1002D000089580E07CDF80E690E085DF08959BDF75
:0C02E000F8DF80E090E00895F894FFCF74
:0802EC006C6C6C6C6C000208E4
:00000001FF
