:1000000012C019C018C017C016C015C014C013C044
:1000100012C011C010C00FC00EC00DC00CC00BC06C
:100020000AC009C008C011241FBECFE5D4E0DEBF5E
:10003000CDBF02D02BC0E4CF8FEF81BB87B18364EB
:1000400087B986B1836086B9379A359A21E030E066
:10005000369A84B195B1880F892F881F990B919595
:1000600012BA90E062B3A901092E02C0440F551FD5
:100070000A94E2F7642B62BB9F5F891798F783EDC0
:1000800090E30197F1F700C00000E2CFF894FFCFB2
:00000001FF
