:1000000012C024C023C022C021C020C01FC01EC0F7
:100010001DC01CC01BC01AC019C018C017C016C014
:1000200015C014C013C011241FBECFE5D4E0DEBF3D
:10003000CDBF10E0A0E6B0E0EAEAF0E002C0059033
:100040000D92AA36B107D9F720D02DC0D9CF5F9B2A
:10005000FECF8CB108955D9BFECF8CB908955D9B5A
:10006000FECF8CB908951F93CF93DF93EC0110E07E
:1000700002C0F5DF1F5FFE01E10FF11D80818823C3
:10008000C1F7DF91CF911F91089510BC8CE089B921
:10009000599A86E880BD88E98AB980E690E0E3DF76
:0A00A000D6DFD9DFFDCFF894FFCFC3
:0A00AA00776974616A210D0A0000F5
:00000001FF
