:1000000012C024C023C022C021C020C01FC01EC0F7
:100010001DC01CC01BC01AC019C018C017C016C014
:1000200015C014C013C011241FBECFE5D4E0DEBF3D
:10003000CDBF10E0A0E6B0E0E6E6F3E002C0059038
:100040000D92AA36B107D9F778D18BC1D9CFC19813
:100050000895C19A0895FF920F931F93182FF62EBB
:10006000662311F0C29A01C0C29817FF02C0979A86
:1000700001C09798012F16FF02C0969A01C096986A
:1000800005FF02C0959A01C0959804FF02C0949A9A
:1000900001C094980000DDDF00C000C0D8DF03FF7E
:1000A00002C0979A01C0979802FF02C0969A01C0B9
:1000B000969801FF02C0959A01C0959800FF02C072
:1000C000949A01C094980000C4DF00C000C0BFDF54
:1000D000979A969A959A949AFF2049F4143038F496
:1000E0008FEC9CE00197F1F700C0000004C09AE695
:1000F0009A95F1F700C01F910F91FF90089560E06D
:10010000AADF08958058FBDF089581E0F8DF0895A5
:1001100082E0F5DF089561E09EDF0895CF93DF93DD
:10012000EC0101C0F8DF89918823E1F7DF91CF91DD
:100130000895CF93DF93EC0101C0EDDFFE0121961E
:1001400084918823D1F7DF91CF910895B99ABA9A13
:100150008F9A8E9A8D9A8C9A7ADFC298979A969AED
:10016000959A949A8FE295E70197F1F700C0000005
:100170009798969800006DDF00C000C068DF87E0A8
:1001800090E20197F1F700C0000063DF00C000C0FB
:100190005EDF87EC90E00197F1F700C0000059DFC7
:1001A00000C000C054DF9AE69A95F1F700C0949819
:1001B00000004FDF00C000C04ADF8AE68A95F1F7F1
:1001C00000C09498000045DF00C000C040DF00C0C0
:1001D00000C0979A00003DDF00C000C038DF9AE6FB
:1001E0009A95F1F700C088E08ADF8FDF86E087DF2D
:1001F0008CE085DF08951F93DF93CF930F92CDB7E7
:10020000DEB7182F80E469837ADF8EE184DF82E134
:1002100082DF83E180DF8FE17EDF8FE17CDF8FE1B2
:100220007ADF8EE178DF8EE176DF812F6BDF80E091
:1002300072DF88E464DF80E06EDF8CE06CDF8CE0EE
:100240006ADF80E068DF8CE066DF8CE064DF80E0FE
:1002500062DF80E060DF6981862F54DF81E05BDF51
:100260000F90CF91DF911F9108951F93182F88E56C
:1002700046DF88E050DF84E14EDF88E04CDF83E03A
:100280004ADF84E048DF84E046DF84E044DF83E047
:1002900042DF812F37DF83E03EDF1F9108951F93F8
:1002A000182F80E62CDF84E036DF8AE034DF8BE035
:1002B00032DF8AE030DF8AE02EDF81E12CDF81E16E
:1002C0002ADF8EE028DF812F1DDF84E024DF1F91ED
:1002D00008951F93182F88E612DF81E01CDF82E06B
:1002E0001ADF84E018DF82E016DF84E114DF88E1A2
:1002F00012DF8CE110DF80E00EDF812F03DF85E06D
:100300000ADF1F9108951F93182F80E7F8DE80E021
:1003100002DF80E000DF80E0FEDE8EE0FCDE85E1D3
:10032000FADE87E1F8DE81E1F6DE8EE0F4DE812F91
:10033000E9DE86E0F0DE1F91089508DF80E0E2DE6E
:1003400080E690E0EBDE82E463E455DF84E48DDF59
:1003500085E4A5DF86E4BDDF87E4D5DF80E090E0BB
:060360000895F894FFCFA0
:0A0366005A6174616E6B756A000045
:00000001FF
