:1000000012C024C023C022C021C020C01FC01EC0F7
:100010001DC01CC01BC01AC019C018C017C016C014
:1000200015C014C013C011241FBECFE5D4E0DEBF3D
:10003000CDBF11E0A0E6B0E0ECEDF3E002C005902A
:100040000D92AE3CB107D9F7F3D0C6C1D9CF10BCE1
:100050008CE089B9599A88E98AB986E880BD089503
:100060005D9BFECF8CB908955F9BFECF8CB1089548
:100070001F93CF93DF93EC0110E002C0F1DF1F5F0D
:10008000FE01E10FF11D80818823C1F7DF91CF913F
:100090001F910895CF92DF92EF92FF920F931F93DB
:1000A000CF93DF93EC01DD24062F10E001501040C8
:1000B0000BC0DADFC82ED4DF8C2D8D3051F0FE015D
:1000C000EE0DFF1DC082D394ED2CFF24E016F10647
:1000D00084F3CD0DD11D1882DF91CF911F910F9127
:1000E000FF90EF90DF90CF9008951F93182F64E654
:1000F00053D1805DB5DF2AE0812F622F4DD1192FBA
:100100004BD1892F805DACDF812F805DA9DF1F91EE
:100110000895FF920F931F93CF93DF93EC0160E15B
:1001200077E246D1862F805D9BDFCE0168EE73E0DB
:100130003FD10AE010E0CB01B8013AD1805D90DFF9
:10014000CE0164E670E034D1CB01B80131D1805DDD
:1001500087DFCE01B8012CD1F82ECB01B80128D110
:10016000805D7EDF8F2D805D7BDFDF91CF911F91E2
:100170000F91FF900895FF920F931F93DF93CF93FA
:100180000F92CDB7DEB7898387E0F82E8E010F5F1F
:100190001F4FF801808190E00F2C02C09595879544
:1001A0000A94E2F780FF02C081E301C080E358DFD8
:1001B000FA94FF2DFF3F69F70F90CF91DF911F91C8
:1001C0000F91FF9008958A3010F4805D0895895C46
:1001D00008951F93182F82958F70F5DF41DF812FCF
:1001E0008F70F1DF3DDF1F910895EF92FF920F9323
:1001F0001F9300E310E390E3E92E03C0E12E102FDC
:100200000F2D32DFF82E2CDF8F2D8D30B9F7005DEA
:1002100084E6E89EE02C11240E0D110F812F880F2B
:10022000880F810F800F1F910F91FF90EF9008951D
:100230001F93CF93DF930BDF8EB583608EBD8CEF62
:1002400081BBC09A80E690E013DF82E790E010DF88
:1002500084E890E00DDF1CEF07DF89EA90E008DF1B
:1002600086D08DEB90E004DF12BB1DBC1CBCB099A6
:1002700004C087EC90E0FCDE0DC0B099FECFCCB599
:10028000DDB584E0D695C7958A95E1F7CE0107D014
:10029000CE0142D012BA82EE90E0EADEDDCFCF93FB
:1002A000DF93EC0180E091E0E3DE80E003C08F5F4C
:1002B000C051D74227E2C031D207C8F7882311F0D6
:1002C000805DCEDE80E003C08F5FC85ED34033E048
:1002D000C83ED307C8F7805DC3DE8EE2C1DE80E092
:1002E00003C08F5FC456D040C436D105D0F7805DBF
:1002F000B7DE80E002C08F5F2A97CA30D105D8F7F9
:10030000805DAEDE9E01205D822FAADE82E191E05B
:10031000AFDEDF91CF91089527E0813D920718F07D
:100320008DE191E022C023E0893E920718F083E539
:1003300091E01BC021E0853F920718F083E691E031
:1003400014C08B3F910518F084E791E00EC0893C02
:10035000910518F083E991E008C08639910518F0FD
:1003600085EA91E002C086EB91E082DE08958FE39A
:100370009DE0A3E081509040A040E1F700C0000064
:100380008CB59DB506C0A3ECB9E01197F1F700C09C
:1003900000008150C1F70895991B79E004C0991FAE
:1003A000961708F0961B881F7A95C9F780950895CF
:1003B000AA1BBB1B51E107C0AA1FBB1FA617B7078B
:1003C00010F0A61BB70B881F991F5A95A9F78095A7
:0C03D0009095BC01CD010895F894FFCF7A
:1003DC000D0A437A6173207265616B636A693A0D29
:1003EC000A002D2D2D2D2D2D2D2D2D2D2D2D2D2D81
:1003FC002D0D0A004E616369C59B6E696A206B6C9A
:10040C00617769737A2C20C5BC656279207A616347
:10041C007AC485C4872E0D0A000D0A50727A79674A
:10042C006F74756A207369C4992E2E2E000D0A4ABA
:10043C0075C5BC210D0A004F737A756B756A6573AF
:10044C007A2074796C6B6F207369656269652E0D07
:10045C000A00507265737320616E79206B65792088
:10046C00746F2074727920616761696E2E0D0A00B9
:10047C000D0A5A616AC499C5826F20436920746F52
:10048C0020002073656B756E642E0D0A002D2D2DCA
:10049C002D3E2020456D6D6D2E2E2E746F206A65BD
:1004AC007374206D6965726E696B20737A79626BF7
:1004BC006FC59B6369207265616B636A692E2E2E12
:1004CC000D0A002D2D2D2D3E2020C5BB6172743FD1
:1004DC000D0A002D2D2D2D3E2020506F776F6C694D
:1004EC002E0D0A002D2D2D2D3E2020C581796B6EF1
:1004FC00696A206A65737A637A65206B6177792EF5
:10050C000D0A002D2D2D2D3E20204E6965C5BA6C8F
:10051C00652E0D0A002D2D2D2D3E2020537A79624B
:10052C006B6F2E0D0A002D2D2D2D3E20204E696552
:0E053C0073616D6F7769636965210D0A0000B8
:00000001FF
