:100000008FC0A9C0A8C0A7C0A6C0A5C0A4C0A3C0D7
:10001000A2C0A1C0A0C09FC09EC09DC09CC09BC0EC
:100020009AC099C098C000407A10F35A00A0724E4E
:1000300018090010A5D4E80000E87648170000E48D
:100040000B54020000CA9A3B000000E1F5050000D5
:1000500080969800000040420F000000A08601003A
:100060000000102700000000E8030000000064000A
:10007000000000000A000000000001000000000075
:100080002C76D888DC674F0823DFC1DFAE59E1B199
:10009000B796E5E3E453C63AE651997696E8E6C2A8
:1000A0008426EB898C9B62ED407C6FFCEFBC9C9FAF
:1000B00040F2BAA56FA5F490055A2AF75C936B6CD1
:1000C000F9676DC11BFCE0E40D47FEF520E6B500C5
:1000D000D0ED902E0300943577050080841E080033
:1000E00000204E0A000000C80C333333330F986EE3
:1000F00012831141EF8D2114893BE65516CFFEE6A0
:10010000DB18D1844B381BF77C1D901DA4BBE42465
:10011000203284725E228100C9F124ECA1E53D27E2
:1001200011241FBECFE5D4E0DEBFCDBF11E0A0E6B5
:10013000B0E0E2E9FEE002C005900D92A637B107FB
:10014000D9F711E0A6E7B1E001C01D92AE37B107C3
:10015000E1F7CBD39CC654CFA0E2B0E0E1EBF0E0F6
:1001600012C469837A838B839C832D833E834F8360
:100170005887CE010196BE01675F7F4F65D2CE01E1
:100180000596BE016F5E7F4F5FD29985923078F001
:1001900089898230C0F0943019F4823041F4CBC0A8
:1001A000843019F4923079F4C6C0923051F481E071
:1001B0002A859A89291709F480E08A87CE01099651
:1001C000BCC0823051F481E02A859A89291709F44C
:1001D00080E08A8BCE014196B0C06D847E848F848E
:1001E0009888ED88FE880F89188DE0E2F0E080E0C5
:1001F00090E0DC01AA24BB24650120E030E0A901E5
:10020000B3016170707061157105D1F02E0D3F1D45
:10021000401F511F15012601280E391E4A1E5B1E64
:1002200081E090E0A0E0B0E02E153F0540075107C7
:1002300018F080E090E0DC01820D931DA41DB51D37
:10024000AA0CBB1CCC1CDD1C17FF09C061E0262ECC
:10025000312C412C512CA228B328C428D528319701
:1002600049F0EE0CFF1C001F111F969487947794A1
:100270006794C6CF6B897C89EB85FC856E0F7F1FE9
:100280006E5F7F4F7C8F6B8F61E0EA857A89E7171D
:1002900009F460E06A8F6B8D7C8D10C0FC01E17009
:1002A000F070309729F05695479537952795506807
:1002B000B695A795979587956F5F7F4FB7FDEECF62
:1002C0000CC0880F991FAA1FBB1F57FD8160220F0A
:1002D000331F441F551F615070408030E0E09E077F
:1002E000E0E0AE07E0E4BE0760F36B8F7C8F6FE762
:1002F000E62EF12C012D112DE822F9220A231B23D1
:1003000060E4E616F1040105110561F487FD0AC0F9
:10031000211531054105510529F0805C9F4FAF4FF4
:10032000BF4F80788D8F9E8FAF8FB8A383E0898F6A
:10033000CE01499602C08DE690E0B9D0A096E2E1E8
:100340003EC3A8E0B0E0E6EAF1E029C37B018C01FE
:1003500083E08983D801C7018827B7FD8395992752
:10036000AA27BB27282F8A83E114F1040105110570
:1003700019F482E0898336C08EE190E09C838B8300
:10038000222389F080E0E81680E0F80680E0080784
:1003900080E8180759F110950095F094E094E11C5D
:1003A000F11C011D111DED82FE820F831887C8010B
:1003B000B70123D09C01215030401216130694F44B
:1003C000022E04C0EE0CFF1C001F111F0A94D2F76E
:1003D000ED82FE820F8318878EE190E0821B930BE3
:1003E0009C838B83CE01019662D004C060E070E0F4
:1003F00080E09FEC2896E6E0EEC2AF92BF92CF92EB
:10040000DF92EF92FF920F931F937B018C0180E0AC
:10041000E81680E0F80681E0080780E0180758F445
:10042000EFEFEE16F1040105110509F090F480E0FC
:1004300090E0DC0117C0F0E0EF16F0E0FF06F0E01E
:100440000F07F1E01F0750F480E190E0A0E0B0E07A
:1004500009C088E090E0A0E0B0E004C088E190E04E
:10046000A0E0B0E020E230E040E050E0281B390B93
:100470004A0B5B0B5701680104C0D694C794B7942C
:10048000A7948A95D2F7D601C5018B589F4FFC01DE
:100490008081281B310941095109C9011F910F9120
:1004A000FF90EF90DF90CF90BF90AF900895EF92C4
:1004B000FF920F931F93CF93DF93FC01248135812B
:1004C0004681578161818081823020F44061EFEF65
:1004D000F0E0A3C0843009F49BC0823009F492C0DC
:1004E000211531054105510509F48FC00280F381C2
:1004F000E02D8FEFE238F8070CF05AC0C2E8DFEFCA
:10050000CE1BDF0BCA31D1056CF579018A010C2EA7
:1005100004C016950795F794E7940A94D2F781E002
:1005200090E0A0E0B0E00C2E04C0880F991FAA1F35
:10053000BB1F0A94D2F70197A109B1098223932323
:10054000A423B52321E030E040E050E00097A1056E
:10055000B10519F420E030E0A9012E293F29402BF4
:10056000512B03C020E030E0A901DA01C9018F77E7
:100570009070A070B07080349105A105B10539F478
:1005800027FF09C0205C3F4F4F4F5F4F04C0215CE5
:100590003F4F4F4F5F4FE1E0F0E0203080E0380701
:1005A00080E0480780E4580728F5E0E0F0E022C04A
:1005B000E038F1056CF5E158FF4FDA01C9018F779A
:1005C0009070A070B07080349105A105B10539F428
:1005D00027FF09C0205C3F4F4F4F5F4F04C0215C95
:1005E0003F4F4F4F5F4F57FF05C056954795379583
:1005F0002795319687E056954795379527958A95A3
:10060000D1F70BC0E0E0F0E005C0E0E0F0E005C0AD
:10061000EFEFF0E020E030E0A9018E2F87958827EA
:100620008795942F9F77679566276795E695E22EC5
:10063000A92FA82BFE2FF62B622F732F8A2F9F2F07
:10064000CDB7DEB7E6E0C7C1DC01FB012C91119606
:100650003C91119712968C911297482F4F7750E04A
:10066000982F991F9927991F13966C911397862F8E
:10067000880F892B90E0661F6627661F61830097AD
:1006800039F5211531054105510511F482E029C0E4
:1006900082E89FEF9383828367E0220F331F441F1A
:1006A000551F6A95D1F783E0808309C0220F331F5D
:1006B000441F551F82819381019793838283203049
:1006C00080E0380780E0480780E4580778F320C0CE
:1006D0008F3F910579F4211531054105510519F434
:1006E00084E08083089544FF03C081E0808310C0CC
:1006F00010820EC08F5790409383828383E0808363
:1007000087E0220F331F441F551F8A95D1F750648D
:100710002483358346835783089580FF02C0949ACB
:1007200001C0949881FF02C0959A01C0959882FFFC
:1007300002C0969A01C0969883FF02C0979A0895C6
:10074000979808951F93182FC19A82958F70E5DFAF
:10075000C198C19A812FE1DFC19880E18A95F1F7B4
:1007600000C01F910895C298EDCFC29AEBCFEF92CF
:10077000FF92CF93DF93E82EE7017E01F92EE70188
:1007800001C0F3DF89918823E1F7DF91CF91FF90DA
:10079000EF9008956295660F660F607C680F862F54
:1007A0008068E1CF1F938C9A8D9A8E9A8F9AB99A0E
:1007B000BA9A85EA9EE00197F1F700C00000C2985E
:1007C000C19813E0C19A83E0A8DFC19881EE94E05C
:1007D0000197F1F700C000001150A1F7C19A82E023
:1007E0009CDFC19889EF90E00197F1F700C000000D
:1007F00088E2B9DF88E0B7DF81E0B5DF83EF91E021
:100800000197F1F700C0000086E0ADDF8CE0ABDFC0
:100810001F9108959D988D9A86EA8A95F1F700C0F8
:100820008D988FE08A95F1F793B38CE98A95F1F76B
:1008300000C081E095FD80E008958D9A00C000C061
:100840000000813009F48D988AE18A95F1F700C0A3
:100850008D9808958D9A00C08D9885E08A95F1F75E
:1008600081E09D9B80E008950F931F93CF93DF93CA
:10087000C0E0D0E0082F10E0C8010C2E02C0959512
:1008800087950A94E2F78170D8DF2196C830D105A8
:1008900099F731E23A95F1F70000DF91CF911F917E
:1008A0000F910895FF920F931F93CF93DF93C0E0B2
:1008B000D0E0FF2401E010E0CDDF882341F0980173
:1008C0000C2E02C0220F331F0A94E2F7F22A95E0A1
:1008D0009A95F1F72196C830D10571F78F2DDF91E8
:1008E000CF911F910F91FF900895EF92FF920F9378
:1008F0001F93CF93DF9356DF80E060E04BDF80E60D
:1009000090E035DF8FE493EC0197F1F700C0000031
:1009100081DF813089F58CECA7DF84E4A5DF8FEEE1
:1009200099E4A2E081509040A040E1F700C00000AF
:1009300071DF8CEC99DF8EEB97DFB4DF182FB2DF1D
:1009400069DFA0E0ED01BE01610F711D882777FD11
:100950008095982FF6DC20E030E040E85DE3FCDB9A
:1009600041E050E021E030E006E711E043D080E0D4
:1009700061E010DFC801C5CF81E060E00BDF87E6F2
:1009800090E0F5DEC5CF2F923F924F925F926F922B
:100990007F928F929F92AF92BF92CF92DF92EF920F
:1009A000FF920F931F93CF93DF93CDB7DEB7CA1B90
:1009B000DB0B0FB6F894DEBF0FBECDBF09942A88BB
:1009C000398848885F846E847D848C849B84AA8463
:1009D000B984C884DF80EE80FD800C811B81AA81F0
:1009E000B981CE0FD11D0FB6F894DEBF0FBECDBFBB
:1009F000ED010895EF92FF920F931F93322FF02E87
:100A000047FF02C0A4E101C0A4E0E42FFF27E7FDF7
:100A1000F095F7FF03C0F095E195FF4F4F2D512F53
:100A20002E2F032FEA2E07D08F2D912F1F910F917C
:100A3000FF90EF900895A9E0B0E0E0E2F5E0ABCFE1
:100A40006A01F22E102F0C3318F4B02EB39402C0AA
:100A5000ECE3BE2EAE014F5F5F4F27E00B2D3FD181
:100A6000298130E0A901497050704130510531F0C1
:100A7000E1FC06C0E0FE06C0E0E205C0EDE203C016
:100A8000EBE201C0E0E023FF37C0EE2311F084E089
:100A900001C083E08F1518F4F81A8F2D01C080E093
:100AA000E4FC0BC0982FD60120E202C02D93915098
:100AB0009923E1F7C80ED11C80E0EE2319F0D6018E
:100AC000ED936D01F6013196E2FE05C09EE4D6017C
:100AD0009C9321E404C09EE6D6019C9321E61196E6
:100AE0002C9391833296982FDF0120E202C02D9340
:100AF00091509923E1F73DC022FF41C0EE2311F050
:100B000084E001C083E08F1518F4F81A8F2D01C01E
:100B100080E0E4FC0BC0982FD60120E202C02D93A8
:100B200091509923E1F7C80ED11C80E0EE2319F013
:100B3000D601ED936D01F6013196E2FE09C099E40C
:100B4000D6019C939EE411969C93119796E407C05E
:100B500099E6D6019C939EE611969C9396E6918326
:100B60003296982FDF0120E202C02D9391509923F5
:100B7000E1F7E80FF11D10822EEF3FEFACC041E02E
:100B800050E0EE2311F440E050E01816190624F46A
:100B9000BC016F5F7F4F02C061E070E0640F751FA2
:100BA000112329F0412F50E04F5F5F4F02C040E01A
:100BB00050E0460F571F6F2D70E0461757071CF483
:100BC0000F2D041B01C000E0FF24A70140715070ED
:100BD000E4FC0DC0E3FC0BC0602FD60170E202C044
:100BE0007D9361506623E1F7C00ED11C00E0EE2337
:100BF00019F0D601ED936D014115510559F4402FBF
:100C0000F60150E302C0519341504423E1F7C00E76
:100C1000D11C00E0B80EFA80A9014071507024FF89
:100C200004C0BF2DB13309F4BA941B142CF4AB2DBE
:100C3000A93018F0A8E001C0A1E09C0197FF02C014
:100C400020E030E0BC016F5F7F4F621B730BFE0141
:100C50003196E60FF71F6EE2E62EBC016A1B7109A2
:100C6000A12FB0E0AA24BB24AA1ABB0A1FEF2F3F72
:100C7000310719F4D601ED926D01821793072CF01C
:100C80006217730714F4108101C010E32150304043
:100C900031962A153B0524F0D6011D936D01E6CF50
:100CA0002817390749F4BF2DB63328F4B53321F49A
:100CB0004115510509F411E3F6011193802FDF016D
:100CC00090E202C09D9381508823E1F7E00FF11D6F
:100CD000108220E030E0C9012996EAE078CE283081
:100CE00008F027E03327DA01990F311D87FD916065
:100CF00000966105710539F432602E5F3D9330E353
:100D00002A95E1F708959F3F30F08038710561051D
:100D100009F03C5F3C5F3D93913008F08068911D85
:100D2000DF93CF931F930F93FF92EF92192F987F2A
:100D30009695E92F96959695E90FFF27E058FF4F76
:100D400099273327EE24FF24A701E7010590089493
:100D5000079428F4360FE71EF81E491F511D660F31
:100D6000771F881F991F0694A1F70590079428F410
:100D7000E70EF81E491F561FC11D770F881F991FC8
:100D8000661F0694A1F70590079428F4F80E491FF2
:100D9000561FC71FD11D880F991F661F771F069406
:100DA000A1F70590079420F4490F561FC71FD81FBD
:100DB000990F661F771F881F0694A9F784911095D5
:100DC000177041F0D695C79557954795F794E794D6
:100DD0001A95C1F7E6E2F0E0689415901591359107
:100DE0006591959105907FE27395E118F10A430BA7
:100DF000560BC90BD009C0F7E10CF11E431F561F5B
:100E0000C91FD01D7EF4703311F48A95E6CFE894A3
:100E1000015030F0080F0AF40027021708F4202FC1
:100E20002395022F7A3328F079E37D932A95E9F709
:100E300010C07D932A9589F6069497956795379506
:100E400017951794E118F10A430B560BC90BD009FB
:100E500098F023957E9173957A3308F070E37C9334
:100E60002013B8F77E9170617D9330F0839571E324
:100E70007D9370E32A95E1F71124EF90FF900F9195
:100E80001F91CF91DF91992787FD90950895F89450
:020E9000FFCF92
:100E9200312D57495245004369737A6100000000C1
:100EA2000000000000000102020303030304040423
:100EB20004040404040505050505050505050505E5
:100EC20005050505050606060606060606060606C5
:100ED20006060606060606060606060606060606B0
:100EE2000606060606070707070707070707070795
:100EF2000707070707070707070707070707070780
:100F0200070707070707070707070707070707076F
:100F1200070707070707070707070707070707075F
:100F22000707070707080808080808080808080844
:100F3200080808080808080808080808080808082F
:100F4200080808080808080808080808080808081F
:100F5200080808080808080808080808080808080F
:100F620008080808080808080808080808080808FF
:100F720008080808080808080808080808080808EF
:100F820008080808080808080808080808080808DF
:100F920008080808080808080808080808080808CF
:060FA20008080808080021
:00000001FF
