:1000000017C029C028C027C026C025C024C023C0CF
:1000100022C021C020C01FC01EC01DC01CC01BC0EC
:100020001AC019C018C0C0F9A4B0999282D88090A3
:1000300011241FBECFE5D4E0DEBFCDBF10E0A0E6A7
:10004000B0E0ECEFF0E002C005900D92A236B107EF
:10005000D9F70DD051C0D4CF8B3030F4E82FF0E079
:10006000EA5DFF4FE49101C0E0E8E2BB08950F9321
:100070001F93CF93DF938FEF81BB88B3836088BBDF
:1000800080E0CAE0D0E0082F10E0C801E5DFC80139
:100090000196BE010AD02FE33DE043E021503040FD
:1000A0004040E1F700C00000EECF97FB092E072685
:1000B0000AD077FD04D00CD006D000201AF4709539
:1000C00061957F4F0895F6F7909581959F4F08951C
:1000D000AA1BBB1B51E107C0AA1FBB1FA617B7076E
:1000E00010F0A61BB70B881F991F5A95A9F780958A
:0C00F0009095BC01CD010895F894FFCF5D
:0200FC007F0083
:00000001FF
