:1000000012C024C023C022C021C020C01FC01EC0F7
:100010001DC01CC01BC01AC019C018C017C016C014
:1000200015C014C013C011241FBECFE5D4E0DEBF3D
:10003000CDBF10E0A0E6B0E0ECE9F2E002C0059030
:100040000D92AC3BB107D9F7F3D026C1D9CF10BC84
:100050008CE089B9599A88E98AB986E880BD089503
:100060005D9BFECF8CB908955F9BFECF8CB1089548
:100070001F93CF93DF93EC0110E002C0F1DF1F5F0D
:10008000FE01E10FF11D80818823C1F7DF91CF913F
:100090001F910895CF92DF92EF92FF920F931F93DB
:1000A000CF93DF93EC01DD24062F10E001501040C8
:1000B0000BC0DADFC82ED4DF8C2D8D3051F0FE015D
:1000C000EE0DFF1DC082D394ED2CFF24E016F10647
:1000D00084F3CD0DD11D1882DF91CF911F910F9127
:1000E000FF90EF90DF90CF9008951F93182F64E654
:1000F000B3D0805DB5DF2AE0812F622FADD0192FFC
:10010000ABD0892F805DACDF812F805DA9DF1F918F
:100110000895FF920F931F93CF93DF93EC0160E15B
:1001200077E2A6D0862F805D9BDFCE0168EE73E07C
:100130009FD00AE010E0CB01B8019AD0805D90DF3B
:10014000CE0164E670E094D0CB01B80191D0805D1F
:1001500087DFCE01B8018CD0F82ECB01B80188D052
:10016000805D7EDF8F2D805D7BDFDF91CF911F91E2
:100170000F91FF900895FF920F931F93DF93CF93FA
:100180000F92CDB7DEB7898387E0F82E8E010F5F1F
:100190001F4FF801808190E00F2C02C09595879544
:1001A0000A94E2F780FF02C081E301C080E358DFD8
:1001B000FA94FF2DFF3F69F70F90CF91DF911F91C8
:1001C0000F91FF9008958A3010F4805D0895895C46
:1001D00008951F93182F82958F70F5DF41DF812FCF
:1001E0008F70F1DF3DDF1F910895EF92FF920F9323
:1001F0001F9300E310E390E3E92E03C0E12E102FDC
:100200000F2D32DFF82E2CDF8F2D8D30B9F7005DEA
:1002100084E6E89EE02C11240E0D110F812F880F2B
:10022000880F810F800F1F910F91FF90EF9008951D
:100230008CEF81BB0CDF80E690E01ADF15DF8230A7
:1002400019F488E790E0F9CF843019F48BE890E056
:10025000F4CF8EE990E0F1CF991B79E004C0991FAB
:10026000961708F0961B881F7A95C9F78095089510
:10027000AA1BBB1B51E107C0AA1FBB1FA617B707CC
:1002800010F0A61BB70B881F991F5A95A9F78095E8
:0C0290009095BC01CD010895F894FFCFBB
:10029C002D2D2D5779736C696A2032206C75622074
:1002AC00342D2D2D2D0D0A002D2D2D5779736C61AC
:1002BC006C657320322D2D2D0D0A002D2D2D5779A7
:1002CC00736C616C657320342D2D2D0D0A002D2D52
:1002DC002D4D69616C6573207779736C6163203285
:0C02EC00206C756220342D2D2D0D0A00B1
:00000001FF
