:1000000012C02CC02BC02AC029C028C027C026C0BF
:1000100025C024C023C022C021C020C01FC01EC0D4
:100020001DC01CC01BC011241FBECFE5D4E0DEBF25
:10003000CDBF10E0A0E6B0E0E2E0FBE002C005903A
:100040000D92AA38B107D9F710E0AAE8B0E001C0D4
:100050001D92A439B107E1F77CD151C5D1CFC19828
:100060000895C19A0895FF920F931F93182FF62EAB
:10007000662311F0C29A01C0C29817FF02C0979A76
:1000800001C09798012F16FF02C0969A01C096985A
:1000900005FF02C0959A01C0959804FF02C0949A8A
:1000A00001C094980000DDDF00C000C0D8DF03FF6E
:1000B00002C0979A01C0979802FF02C0969A01C0A9
:1000C000969801FF02C0959A01C0959800FF02C062
:1000D000949A01C094980000C4DF00C000C0BFDF44
:1000E000979A969A959A949AFF2049F4143038F486
:1000F0008FEC9CE00197F1F700C0000004C09AE685
:100100009A95F1F700C01F910F91FF90089560E05C
:10011000AADF08958058FBDF089581E0F8DF089595
:1001200082E0F5DF089561E09EDF0895CF93DF93CD
:10013000EC0101C0F8DF89918823E1F7DF91CF91CD
:100140000895CF93DF93EC0101C0EDDFFE0121960E
:1001500084918823D1F7DF91CF910895B99ABA9A03
:100160008F9A8E9A8D9A8C9A7ADFC298979A969ADD
:10017000959A949A8FE295E70197F1F700C00000F5
:100180009798969800006DDF00C000C068DF87E098
:1001900090E20197F1F700C0000063DF00C000C0EB
:1001A0005EDF87EC90E00197F1F700C0000059DFB7
:1001B00000C000C054DF9AE69A95F1F700C0949809
:1001C00000004FDF00C000C04ADF8AE68A95F1F7E1
:1001D00000C09498000045DF00C000C040DF00C0B0
:1001E00000C0979A00003DDF00C000C038DF9AE6EB
:1001F0009A95F1F700C088E08ADF8FDF86E087DF1D
:100200008CE085DF089584EA86BF06B607FEFDCF41
:10021000089584E986BF06B604FCFDCF089583B92E
:1002200084E886BF06B607FEFDCF08951F93DF93CF
:10023000CF930F92CDB7DEB7182FE5DF82EAEFDF5D
:10024000812FEDDFE0DF83EAEADF84E886BF06B6D0
:1002500007FEFDCF83B18983DCDF89810F90CF91C9
:10026000DF911F9108951F93DF93CF930F92CDB726
:10027000DEB7182F6983C7DF82EAD1DF812FCFDF96
:100280006981862FCCDFC5DF0F90CF91DF911F9161
:100290000895CCDF982F92959F70990F292F220FE8
:1002A000220F290F8F70820F0895282F862F6AE062
:1002B0004BD1682F6295607F692B822FD4DF089520
:1002C00080E0B4DF80938A0080918A0082708093FE
:1002D0008B0080918A000895F3DF80918A00806806
:1002E00080938A0060918A0080E0BDDF0895E8DF96
:1002F00080918A008F7780938A0060918A0080E0E5
:10030000B2DF0895DDDF80918A008F7B80938A00C1
:1003100060918A0080E0A7DF0895D2DF80918A0093
:10032000806480938A0060918A0080E09CDF089559
:10033000DF93CF930F92CDB7DEB7682F80E199831B
:1003400092DF81E19981692F8EDF0F90CF91DF914C
:1003500008957F928F929F92AF92BF92CF92DF9239
:10036000EF92FF920F931F93DF93CF93CDB7DEB73A
:1003700064970FB6F894DEBF0FBECDBF11B880E210
:1003800080B910928A0010928B0080E060E06BDFF1
:1003900084E04CDF682F6F7384E065DF88E060E9FC
:1003A00062DF9ADF81E060E080DF82E06FE17DDF85
:1003B00083E067E37ADF84E069E077DF98DF8FED41
:1003C00097E0B6DF89DF85E063ED4DDF86E064E02E
:1003D0006CDF8DDFC3DE7E010894E11CF11C20E69A
:1003E000C22E20E0D22E96E7A92E90E0B92E95DFFE
:1003F00081E04FDF80938C0082E04BDF80939000A0
:1004000083E047DF80938E0084E043DF80938D009C
:1004100079DF83DF85E00ADF782E86E007DF282F8B
:100420002695269526952270922F990F990F920F57
:100430008F70980F90938F0065DF972D9695969506
:1004400096959670892F880F880F890F972D9F702A
:10045000890F8093930080E1E9DE082F81E1E6DED9
:10046000982E882410E008291929202F30E02370C5
:10047000307072947694769483E07822872D90E0A1
:100480002817390721F00F5F1F4FC80151DF109364
:100490009200009391008DB79EB70A970FB6F8941B
:1004A0009EBF0FBE8DBFEDB7FEB73196ADB7BEB7DD
:1004B0001296FC92EE921197D382C28280918D00A7
:1004C0008483158280918E008683178280919000AC
:1004D0008087118645D08DB79EB70A960FB6F894DF
:1004E0009EBF0FBE8DBF80E015DEC7011FDE80E41A
:1004F00011DEADB7BEB71A970FB6F894BEBF0FBEE8
:10050000ADBFEDB7FEB731961296FC92EE92119701
:10051000B382A282809193008483158280918F00A0
:1005200086831782809191009091920091878087B5
:1005300017D08DB79EB70A960FB6F8949EBF0FBE20
:100540008DBFC701F3DD53CF991B79E004C0991F1C
:10055000961708F0961B881F7A95C9F7809508951D
:10056000AEE0B0E0E5EBF2E0A1C20D891E8986E0C5
:100570008C831A8309838FEF9FE79E838D839E016F
:10058000275E3F4FCE0101966F89788DA90108D073
:10059000EF81F885E00FF11F10822E96E4E0A2C2F1
:1005A000ACE0B0E0E5EDF2E073C26C011B018A0142
:1005B000FC0117821682838181FFC4C12E01089439
:1005C000411C511CF6019381F10193FD859193FF2C
:1005D00081911F01882309F4B1C1853239F493FD5B
:1005E000859193FF81911F01853221F490E0B6013E
:1005F000C5D1E8CFEE24FF2420E02032B0F48B32C6
:1006000069F08C3228F4803251F0833271F40BC0DF
:100610008D3239F0803349F421602CC0226024608F
:1006200029C0286027C0206125C027FD2CC0382F95
:1006300030533A3098F426FF08C08E2D880FE82EEC
:10064000EE0CEE0CE80EE30E15C08F2D880FF82E81
:10065000FF0CFF0CF80EF30E20620CC08E3221F45A
:1006600026FD6CC1206406C08C3611F4206802C0DF
:10067000883649F4F10193FD859193FF81911F0123
:10068000882309F0BACF982F9554933018F09052E0
:10069000933028F40C5F1F4FFFE3F9830DC08336BE
:1006A00031F0833771F0833509F05CC021C0F80167
:1006B000808189830E5F1F4F420171E0A72EB12C0C
:1006C00015C062E0662E712C600E711EF8018080EC
:1006D000918026FF03C06E2D70E002C06FEF7FEFA8
:1006E000C4012C8740D15C0183012C852F7716C073
:1006F00052E0652E712C600E711EF8018080918091
:1007000026FF03C06E2D70E002C06FEF7FEFC401C3
:100710002C871ED15C012C852068830123FD1EC01F
:1007200007C080E290E0B6012C8728D1FA942C858E
:100730008F2D90E0A816B906A0F310C0F40127FD94
:10074000859127FF81914F0190E0B6012C8716D14A
:100750002C85F110FA940894A108B108A114B104F1
:1007600069F7E9C0843611F0893641F527FF08C0E2
:10077000F80160817181828193810C5F1F4F09C0F4
:10078000F80160817181882777FD8095982F0E5F31
:100790001F4F4FE6B42EB22297FF09C09095809567
:1007A000709561957F4F8F4F9F4FF0E8BF2AA20150
:1007B0002AE030E00FD1782E741844C0853731F428
:1007C0003FEEB32EB2222AE030E025C099EFB92ED9
:1007D000B2228F36C1F0803720F4883509F0AEC0E0
:1007E0000DC0803721F0883709F0A8C002C020E191
:1007F000B22AB4FE0BC084E0B82A08C0B4FE09C017
:10080000E6E0BE2A06C028E030E005C020E130E086
:1008100002C020E132E0B7FE08C0F80160817181BA
:10082000828193810C5F1F4F07C0F8016081718145
:1008300080E090E00E5F1F4FA201CCD0782E74189C
:10084000FFE7BF22B6FE0BC02EEFB2227E1438F4B3
:10085000B4FE07C0B2FC05C08FEEB82202C0A72CC0
:1008600001C0AE2C8B2D90E0B4FE0DC0FE01E70D53
:10087000F11D2081203319F4E9EEBE2209C0A394B2
:10088000B2FE06C004C086789070009709F0A39469
:100890008B2C9924B3FC13C0B0FE0EC0AF1428F407
:1008A000E72CEF0CEA18AF2C07C0E72C05C080E25C
:1008B00090E0B60163D0A394AF14C8F304C0AF14A2
:1008C00010F4FA1801C0FF2484FE0EC080E390E00B
:1008D000B60154D082FE1DC081FE03C088E590E0C1
:1008E00010C088E790E00DC0C40186789070009732
:1008F00081F081FC02C080E201C08BE2B7FC8DE296
:1009000090E0B6013BD005C080E390E0B60136D060
:10091000EA947E14C8F37A94F201E70DF11D808108
:1009200090E0B6012BD07720B1F705C080E290E0CF
:10093000B60124D0FA94FF20C9F744CEF6012681EF
:10094000378102C02FEF3FEFC9012C96E2E1BCC016
:10095000FC010590615070400110D8F7809590958A
:100960008E0F9F1F0895FC0161507040019001108F
:10097000D8F7809590958E0F9F1F08950F931F9322
:10098000CF93DF938C01EB018B8181FF1BC082FF32
:100990000DC02E813F818C819D812817390764F419
:1009A000E881F9810193F983E88306C0E885F98538
:1009B000802F0995009731F48E819F8101969F8346
:1009C0008E8302C00FEF1FEFC801DF91CF911F91FF
:1009D0000F910895FA01AA27283051F1203181F1B1
:1009E000E8946F936E7F6E5F7F4F8F4F9F4FAF4F37
:1009F000B1E03ED0B4E03CD0670F781F891F9A1F4A
:100A0000A11D680F791F8A1F911DA11D6A0F711DFD
:100A1000811D911DA11D20D009F468943F912AE009
:100A2000269F11243019305D3193DEF6CF010895F1
:100A3000462F4770405D4193B3E00FD0C9F7F6CF22
:100A4000462F4F70405D4A3318F0495D31FD4052EA
:100A5000419302D0A9F7EACFB4E0A6959795879580
:100A600077956795BA95C9F700976105710508955F
:100A70009B01AC010A2E069457954795379527950B
:100A8000BA95C9F7620F731F841F951FA01D0895A3
:100A90002F923F924F925F926F927F928F929F928E
:100AA000AF92BF92CF92DF92EF92FF920F931F937C
:100AB000CF93DF93CDB7DEB7CA1BDB0B0FB6F8942D
:100AC000DEBF0FBECDBF09942A88398848885F846D
:100AD0006E847D848C849B84AA84B984C884DF80DE
:100AE000EE80FD800C811B81AA81B981CE0FD11DC2
:100AF0000FB6F894DEBF0FBECDBFED010895F89498
:020B0000FFCF25
:100B0200474F445A3A2020202532753A2530327513
:100B12003A2530327500444154413A202532752D30
:0A0B2200253032752D2530347500A2
:00000001FF
