:100000000C942A000C9434000C9434000C943400AA
:100010000C9434000C9434000C9434000C94340090
:100020000C9434000C9434000C9434000C94340080
:100030000C9434000C9434000C9434000C94340070
:100040000C9434000C9434000C9434000C94340060
:100050000C94340011241FBECFE5D8E0DEBFCDBF25
:100060000E9436000C9467000C940000A498D0986D
:1000700085B3806F85BB8BB38FEF8BBB81B38C6BEC
:1000800081BB8E9887B38C6187BB88EE93E097BD68
:1000900086BD1BBC1ABC19BC18BC80EA8FBD82E1AE
:1000A0008EBD84E893E038E099BD88BD9BBD8ABDD4
:1000B000AB9A939A28B3232728BB2FEF43E254EF40
:1000C000215040405040E1F700C00000EDCFF894CF
:0200D000FFCF60
:00000001FF
